:400000000010002011000000D9030000D903000010B500F0E9F9C04670B51C4C23688022D20213432360182001F050FE2268184B13402360174A184B1A601122174B1A603C
:400040000F32174B1A60103A164B1A602032164B1A6080221206154B1A6000252560144A144B1A60144A154B1A60154A154B1A60154A164B1A601649092001F0F3FD09205F
:4000800001F0E4FD134B1D6070BDC04600010B40FFFFFBFF0600008004010B400802024014020240180202402002024008010B40FE00008000000240FE0000C0400002408E
:4000C0000100008080000240CF00008004000240DD1E00000C020B4010B572B600240FE032486200131959000B00411889881A5AC31858880004104300F042F90134E4B282
:40010000012CEDD9294801000C313C3000F01EF9C0229200264B1A60EE221202254B1A609922254B1A6099231B04244A13608A21C903234A1160234A1360234A1360234A5A
:40014000136080229205224B1A6022490B783C22934314221343DBB20B701F4A117816230B43DBB2137004231C4A1360C02149001B4A1160FA391B4A116001311A4A11609D
:400180001A4A13601A4A1360D8221201194B1A600A22194B1A60194A194B1A600622194B1A60FFF739FF00F011F910BDC0250000000001400C0001401000014000500F40FD
:4001C00008500F4010500F4020500F4030500F4038500F4001700F4000700F400000044008000440000104401801044000020440180204400803044000040440310C00001B
:40020000080404401804044010B5064C2378002B07D1054B002B02D0044800E000BF0123237010BD4801002000000000BC250000084B10B5002B03D00749084800E000BFFE
:4002400007480368002B00D110BD064B002BFBD09847F9E7000000004C010020BC250000C00000200000000010B562B600F0A6F900F012F901F0CEFC012001F0DBFC00F0CC
:400280001FFC00240CE0002001F072FC322001F0FBFC274801F06CFC322001F0F5FC0134032CF0DD00F09AFD00282FD100F0AAF9002000F09BFB1F4B18601F4B1B68FF2B4C
:4002C00008D11E4B18601E4A1E4B1A60013000F0F3F815E0FF2806D1002000F0EDF80022194B1A600CE098420AD0154A154B1A60013000F0E1F80F4B1B680133124A136052
:400300000C4B1A680C4B1A6000F0A6FD0D4C23685A00D318580001F02BFC2368002B03DD013B084A1360BDE70022064B1A60B9E7FFFF000000020020FC010020F8010020C9
:40034000102700000402002064010020F0B50025002711E0BB00C658F3B2FF22964308E06A008A181478A419527822700135013BDBB2002BF4D10137062FEBD9F0BDC046D5
:4003800010B50A00002102F010F910BD0C4B1B68002803D080221206134301E05B005B08074A1360074B1B68002803D080229204134301E0044A1340024A13607047C046E1
:4003C00080031A4008010B40FFFFFFFD10B50120FFF7DCFF10BDC04610B502F0B1F803680C2B00D1FEE7FEE770B50F4E0F4D13E029686B68AC68002202E001C901C304329A
:40040000A242FAD1E868002202E0002102C304328242FAD11035013E002EE9D102F096F8FFF722FFFEE7C046010000005827000010B500230AE0032B03D89A000949505831
:4004400000E009489900094A885001332F2BF2D9FFF742FE8022D205116801230B43136010BDC04600000000D90300000000002010B500F07DF810BD10B500F02BF810BDB6
:4004800010B5044A1368802109060B431360FFF7EFFF10BD0000064010B5064B1B78002B04D1FFF7E9FF0122024B1A70FFF7E8FF10BDC04668010020044B1B680F22134036
:4004C000082BF9D0024B18607047C0460802064040020640134A144B1A600023134A13601349144A1160144A14490A6007201449086014490B6006381349086013490A60B1
:40050000134A1360134A1360134A1360134A1360134A1360134A1360134A13601268134B1A8070470B000002000006404000064001000A00480006400700008000030640A0
:400540000403064010030640440006400002064004020640880E0640C80E0640480F0640080F0640C80F0640880F06406A01002005490B68F0229343603A13430B60034BEE
:400580001A88034B1A607047100001406A010020880F064010B5084B1B78002B06D100F0E9F900F03DFA0122034B1A7000F04CF800F008FE10BDC0466C01002070B5FFF71B
:4005C000E9FF051E02D100F0A5FD0500002D02D100F042FC0500002D02D00BE0013C00E0074C00F0FBFB002801D0002CF6D1002C00D1102500F0EEFA00F062FA280070BD7C
:40060000404B4C0070B50E4E0025002413E0630904339B000B4A9B581F222240D340DB0707D5300000F060F805003100200000F073F92C360134002CE9D0280070BDC0462B
:400640002026000008020020F8B5002309E01D491A1D92008818002444600120404250500133002BF3D0184C012327E06068A37E144A521900211176023BDBB2012B1BD883
:400680002369002B01D0C2791A706768002611E0330008335B00FB18012252429A80606A002806D0B20092195300C018074901F047FA0136002EEBD02C342B005D1E002B37
:4006C000D4D1F8BD0802002020260000FFFF000030B50B884A889C1A0025CD800079844200DDCC8030BDC046F0B55F4680B484B00600837E062B02D10122934601E00022A9
:400700009346F568B46872680192029300270023039314E0029A2100280000F02BFB029A2100019800F0BCFA039021000198FFF7CFFF0A345B46002B00D10C350137338B77
:400740009F42E7D3039804B004BC9346F0BDC046F0B55F4656464D464446F0B485B0844688460B8B8A684F680969894641464E6A002803D17888B979401802E07988B87976
:40078000081A0025012109E0D388984201D3002300E00B001D430A32490023005C1E002BF2D1002D0CD04B461B78002B02D0013B4A4613704B461B78002B04D0654602E037
:4007C000FB794A461370002D00D186E07B88BA799A1A43461B8B994619004346986801F0FFF8041E00D18BE043469B7E022B00D086E000234A464146096A03A801F05CF98B
:40080000040043465B69009343465B6A9B4600239A465FE053465B0003AA9446634401931B889946534608335B00FB189A88394B9A4204D14946584601F082F93BE0009B43
:400840009B060ED55B46588819884A4600F0E8F983B299465B461B885A465380019B1B881380009BDB060DD55B46998828234246D25C0023484600F009FA83B299465B465A
:400880004A469A80009B5B0608D55B46DB884B449BB25A464946D1805B089946009B1B0609D55B461989484600F076FA83B299465B464A461A81534608335B00FB184A4696
:4008C0009A805B46002B02D00A239C46E34401239C46E24454459DD812E0002410E0230008335B00FB18012252429A80002E06D0A3001B1958003018064901F021F9013423
:40090000002CECD0280005B03CBC90469946A246AB46F0BDFFFF000070B504008B7E144A1218157E023BDBB2012B04D82800FFF70FFF050002E0002001F092F90C4B1B1968
:400940001D7663091F2214401E3AA240002D07D104339B000649CB1859689143596006E004339B000249CB1859680A435A6070BD0802002070B5194C70220021200001F0FF
:4009800014FE174B23808023DB006380154BA3800223638303226B33E25402232377124D20001E3029003431133201F0F5FD2A002C00083401230CE0A168238B04E013782E
:4009C0004B7201320A310300581E002BF7D12C342B005D1E002BEFD170BDC04608020020CA240000B80B00001826000000280FD12C234343084AD31822331B78023BDBB257
:400A0000012B07D82C2358431018C368988A02E0024800E00148704718260000FFFF00000023024AD380024A1360704708020020BC010020FF231940062902D0831800218D
:400A400019715300195AC31859808218002313727047C04670B506000D00012305E0220029003000FFF7E6FF23005C1E002BF6D170BDC04610B52C235843064B1B188A005D
:400A8000511848009A6894466044997EFFF7E2FF10BDC0462026000070B505002C234343064AD3181B8B04E021002800FFF7E2FF23005C1E002BF7D170BDC0462026000011
:400AC00010B5012303E02000FFF7E6FF23005C1E002BF8D110BDC04670B5012309E0FF231340062B04D063005E5A1B199D002E5223005C1E002BF2D170BDC046F0B501232C
:400B00000CE0FF231340062B07D065006F5A2E19B300C3185F806D5A9D8023005C1E002BEFD1F0BDF0B501230EE0FF231340062B09D065006F5A2E19B300C318DF806E5AF1
:400B40001E816D5A5D8123005C1E002BEDD1F0BDF0B5474680B480462C234343164AD3181B8B23E02C2342465343134AD318B200921954009A6894466444DA6815009F7EAB
:400B8000062F03D073009B199D0055193A0021002800FFF7A1FF3A0021002800FFF7AEFF3A0021002800FFF7BDFF33005E1E002BD8D104BC9046F0BD2026000010B5012392
:400BC00003E02000FFF7C4FF23005C1E002BF8D110BDC04610B5FFF7F1FF10BDF0B5012319E0FF231340062B14D067007B5A9C463E19B300C318DD8865441E89B4466544B6
:400C00005E89AD19AD0866465E81DE881E817E5ADE80CD5323005C1E002BE2D1F0BDC046884202D9030008001900914200D91100884200D208007047F0B54F464646C0B423
:400C400083B001900F009046012317E0FF2342461340062B11D06E00F05B73199C00019B9C46644463889946A2881900FFF7D8FF4B46A380F35B6380B8532B005D1E002BFF
:400C8000E4D103B00CBC90469946F0BD9840504380235B009A1A51434018000A7047C046F0B5474680B407000E001500012337E06300985BF3185988884206D3431A9846E7
:400CC000331900221A72012302E00B1A98460023002B11D17B7998450ED933191B7A3A7A934205D3220029003000FFF7A3FE16E032190133137212E0FF232B40062B0ED02D
:400D00000902331998461B79194308230122FFF7BDFF020A6300F3185A804346187123005C1E002BC4D1002004BC9046F0BDC046F0B5474680B407000E009046012313E0FA
:400D4000FF2342461340062B0DD06500A85B2A199300D95B00238022FFF798FF80B22A199300D853A85323005C1E002BE8D104BC9046F0BD70B504000D001600FFF75CFF15
:400D8000320029002000FFF7D3FF320029002000FFF724FF70BDC046814201D9013002E0814200D20138704730B5084803680F24A3431900064D2B780F2213400B43E13247
:400DC00093432A78A2431343036030BD00FF084062F1FF0F10B5FFF7E7FF10BD024BDB68802018407047C0460802002010B50E4BDB68DB030DD400280DD1430904339B0027
:400E0000094A9B581F220240D340DB0705D4012404E0112402E0012400E00024002C01D100F092FC200010BD0802002010B5084BDB68DB0307D4074B1B78012B05D100F054
:400E4000DBFB002003E0112001E00120404210BD08020020C001002010B50C4BDB681B0612D40024012040420BE02000FFF7BEFF002805D10022064B5A70FFF7D7FF04E036
:400E80000134002CF1D000E0112010BD08020020C0010020F8B54F464646C0B401280BD0022804D0002399460633984607E0052399460023984602E0002399469846144CB9
:400EC00000251FE001F09AF82268136821698B43136066683268A77E0721B9408A434146B9400A433260227E494691400B4322681360A268136861698B43136001F082F85B
:400F00001C340135042DDDD90CBC90469946F8BD642600007047C046084B1A68520052081A601A68120C12040138104318601A68802109060A431A607047C046000002401E
:400F4000084B1A68520052081A601A68120C12040138104318601A68802109060A431A607047C046400002402C235843024B1818436898897047C0462026000042004003C9
:400F8000801A01238B40013B984205D911028A1A934203D3402002E0C02000E00020C0B27047C04610B50C00FFF7DEFF40002188FFF7E4FFA07310BDF0B5474680B488B01D
:400FC00005002C2343434A4AD3185C689F68494B197F494801F03EF943089846FA26B60018007043454901F035F9B04200D83000434B9C466044FA21890001F02BF90600A4
:40100000C30700D5013601AB4246DA82FA2292001A82C8325A82228A9A822200123204920C2323803749404601F014F9A0810023A3735521280000F099FC002100239C46ED
:40104000002207E07B7A994202D239888C4619000A3701322C236B432548C318DB7E9A42F0D3637A01AFBB76F976A37ADB00264AD3185B6802930C239846A044434603937E
:40108000FA239B0060465843204901F0E3F83883380001F071F8019001E05B00A381A3899E42FAD81A4B984201D8002600E006265521280000F05AFCA37ADB00124AD31879
:4010C0005B6801A84360637A83764346836001F083F8208021002800FFF764FF5521280000F044FC304308B004BC9046F0BDC0462026000008020020C05D000038310000B9
:40110000E7030000DC050000F0260000FF0F0000880D010070B50024002504E02000FFF74BFF05430134002CF8D0280070BDC04610B5002408E02C236343054AD3185968EB
:401140002000FFF72FFF0134002CF4D010BDC0462026000070B505000E00140000F04EFF2B685C4034405C402C6000F04BFF70BD10B50022F02109010248FFF7EBFF00F016
:40118000D1FA10BD1000014010B504000C4B1B78834214D0012B01D1FFF7EAFF012C05D100F03EF90122064B1A7008E0022C06D0042C04D0032C02D00022014B1A7010BD2F
:4011C000C001002010B5FFF705FEFFF7B1FF0020FFF760FE00216D23044AD1540020FFF7D3FF0120FFF7D0FF002010BD08020020014A024B1A607047000200010800084011
:40120000F0B5474680B482B005002C234343224AD3185A689C68138801279F40013F0A2902D908000A3800E000200A23984688444346642B01D9642398467843642101F086
:4012400009F8060040467843642101F003F8020000270023019313E04B00185B864208D80B00824201D207E00123591E002BF3D104E00623019301E0062301930A340137B4
:401280002C236B430449CB181B8B9F42ECD3019802B004BC9046F0BD20260000F8B54F464646C0B4070046688468B57AA84601237F200022914608E0B3185B7A994500D2F3
:4012C0009946984200D9180013005A1E002BF3D100210CE0A3185B7A984200D91800130000E001235A1E002BF4D10A3401313B8B9942F6D34346002B13D0132813D80D49F6
:40130000EA008A1850686B1EDB00CB18596800F0A1FF4F4647437E2F07D8013DB572012004E0002002E0002000E000200CBC90469946F8BDF0260000F0B55F4656464D46D9
:40134000E0B482B007008A4643689B461B8801229A401300013B019301234AE05B465B195B7A9946BB686A00D05A4C46002208E05919497A8C4202D96800C05A0C000A33AE
:401380000132F97E8A42F3D364235843019900F061FF64306043514600F05CFF814500D381465B465B194A465A72BC6800261CE06B00185B64235843019900F04BFF64304D
:4013C00063195B7A584353464A465343984203D2631900225A7206E0C01A3230642100F039FF631958720A340136FB7E9E42DFD32B005D1E002BB1D102B01CBC91469A4600
:40140000A346F0BD10B5054AC02314689C43204310600800FFF794FD10BDC046C400002010B50F4B6D229A5C6C21585C824206D0FFF730FD0A4B6C22995C01329954FFF71B
:40144000D7FEC022D200F02109010648FFF782FE054B1B68054A1343054A136010BDC0460802002010000140C40000202008E8810400084070B5837ADB000D4A9C5809303A
:40148000050000F0BBFD0B4E32680B4B13400B4A11786D5C0A4A126851184A7A12042A431343234324042343336000F0ABFD70BDF02600000800084000FB80FB0027000019
:4014C0007802002010B5064B1B782C225343054AD3185B689989987BFFF794FF10BDC046C301002020260000028801239340013B1B04014A53607047C400002070B500F083
:401500007DFD04001D4B1B681D4A13431D4A13601D4B187FFFF700FD1C4A13685B005B0813601368802109060B431360184E3568272000F059FD174B2B40174A1343336014
:40154000F02300E0013B154A1268120701D4002BF8D10F4B1D60094D114B2A681343094A13600F2000F072FB6F2000F03DFD6A680C4B1A60200000F045FD70BDC4000020FF
:401580002008E8810400084008020020400002400800084000E8FFBFF0060040100008402018E8810C00084010B5044AD36804490B43D360FFF7A2FF10BDC0460802002079
:4015C0008000010070B50400857E067E00F016FD23681B680F22B24093431A000423B3401343666832680721A9408A4332602268136000F007FD70BDF0B5474680B4204B5F
:401600001B782C2253431F4AD3185B6898461E4B6D229A5C6C21585C824206D0FFF73AFC194B6C22995C01329954184C00232370134F3B78134D2C267343EB18996823780C
:40164000DBB29A00D3185A008A18114B1A604046FFF710FF3B785E4370592278D2B2D3009A1A9300C0180B4B1860FFF7ABFF0A4800F0ACFCFFF798FF04BC9046F0BDC046A0
:40168000C30100202026000008020020C2010020780200207C0200201D21000010B52C235843054BC058CB00591A8B00C018034B1860FFF787FF10BD202600007C020020D2
:4016C000F8B50400067E857E00F098FC636819680723AB40994327683B680F22B24093433B606D220E4FBA5C002A05D10623AB4019436368196008E0022A06D10332B24063
:4017000013436268116022681360A1680B68647E0122A24093430B6000F074FCF8BDC0460802002010B5064B1B78012B06D1054B1868FFF7C5FF0022014B1A7010BDC04631
:40174000C40100207C020020F8B5114E2C273B004343F3185D68C0B20E4C20700120FFF713FDFFF7DFFF23787B439A590A4B1A600A4BDA687F218A43DA602178DA680A431E
:40178000DA602800FFF7B0FEFFF79CFEF8BDC04620260000C30100207C0200200802002070B52C234343134AD3185D68C9B2124C217099682378DBB29A00D3185A008A18CB
:4017C0000E4B1A60FFF7C0FF2800FFF753FE2378DBB20B49DA00D31A98000B689C4660440860FFF7EFFE0122064B1A70064800F0EDFB70BD20260000C201002078020020BF
:401800007C020020C4010020D9200000F0B5574680B484B001902C224243514B9A1853689A461D000935012303E0002003AB985413005A1E002BF8D153461A880123934068
:40184000013B59430800642100F004FD0600002300936CE02C23019A5343414AD3189F68009A9300944663445A00BF18012304E04023AB54B9184B7213005A1E002BF7D1B8
:40188000402400990198FFF78BFFFFF78DFE354B00E0013B344AD26812060DD5002BF8D101330AE05300DB5B9E4203D9A9180B78A3430B70130000E001235A1E002BF1D1CB
:4018C000640801330FE0A9180B782343DBB20B70B8184372002C05D10B78002B02D101330B70437213005A1E002BECD1002CC8D1013307E003AB9B181878A95C884200D256
:40190000197013005A1E002BF4D100990198FFF747FFFFF749FE134B00E0013B124AD268120601D5002BF8D1009B013300932C23019A53430A4AD3181B8B009A9A4289D36D
:40194000012305E003AB995C53469B18597213005A1E002BF6D104B004BC9246F0BDC0462026000000A60E000802002070B504000D002C264643174BF618174BDB68DB0300
:4019800024D4736800229A7229002000FFF73EFF3000FFF783FC0028F6D129003000FFF7CBFC2000FFF7D0FEFFF726FE0B4B00E0013B094AD268120601D5002BF8D1002BF6
:4019C00006D029002000FFF71BFC02E0112000E0102070BD202600000802002000366E01F0B50024334B1C700400002600230BE0E588954206D9AE4204D22E4E337101271A
:401A000037702E000A3401338B42F1D3294B1B78002B46D14AE0274FBB181B799E00F61874000519ED88AC465600B61875007D1966466E81002B12D18D006D186C000A3C3D
:401A40000419E6885500AD186C003C19268101339D00EB185D004519EB88A3811FE04D1EEDB2AB420BD10A3C0419E5885400A4186300104CE3181D81C4889C810FE00A3C8B
:401A80000419E6885500AD186C000A4D2C19268101339D00EB185D004519EB88A381013200E00022034B1B789A42B4D3014B1878F0BDC046C8010020F0B557464646C0B479
:401AC00083B082460F000192984600252DE01B4B5B191C79002C07D16A0052195300174AD31800221A810AE0019B013B9C4206D16A0052195300114AD31800229A816E0005
:401B0000721953000D4AD3189A891989501A5B89C9185118784300F027FC7C43444400197F30000A534698530135044B18788542CDD303B00CBC90469A46F0BDC80100207A
:401B4000002804D0018041808180C180018170470004000C014B18607047C046080105400004000C014B18607047C046140105400004000C014B18607047C0460C010540FF
:401B800070B504000D0000F039FAAC40024B1C6000F038FA70BDC0460800054010B500F02DFA064A116801230B43136000F02AFA18210120FFF7E4FF10BDC046000005408C
:401BC000014B18607047C0463801054010B50D4C8023DB042360236823600020FFF7B8FF236823600C22084B1A600020FFF7E8FF3122064B1A600648FFF7B2FF0120FFF7B8
:401C0000B7FF10BD000105402401054028010540FFFF000010B5064B1B78002B04D1FFF7D5FF0122024B1A70FFF7B8FF10BDC046D601002004490A68D2B208239A43C00016
:401C40001840104308607047000404401F2318401E3B8340014A13607047C04600E100E001BE704770B504000D001F2802D90020FFF7F6FF1034A40080239B059C466444D2
:401C80002068256070BDC04610B5040006E0084B586800F0A9F9074B9C46644480231B029C42F4D8024B9868604300F09DF910BDCC0000200080FFFF10B5034B1B7B584359
:401CC00000F092F910BDC046CC000020F0B557464E46C0B483B0040000F090F90190E71E2D2F74D83F4B1B78DBB29C4208D83E4B1B78DBB29A463D4B1B78DBB2994631E0E9
:401D00003B4B1B78DBB29C4208D83A4B1B78DBB29A46394B1B78DBB2994623E0374B1B78DBB29C4208D8364B1B78DBB29A46354B1B78DBB2994615E0334B1B78DBB29C4263
:401D400008D8324B1B78DBB29A46314B1B78DBB2994607E02F4B1B78DBB29A462E4B1B78DBB299462D4BDE5D2F2E09D92A2C07D919222B4B1A60052000F036F9192503E0FA
:401D8000274B1D683F231D40B54206D9234BDA5D234B1A60052000F027F91F4B9C4664442378DBB21F4A13601F4B52461A601F4B4A461A600520FFF77FFFB5420AD2174B1F
:401DC000DA5D174B1A60052000F00EF902E00020FFF746FF019800F015F903B00CBC91469A46F0BDC0F1FF0FC1F1FF0FC2F1FF0FC3F1FF0FC4F1FF0FC5F1FF0FC6F1FF0FB3
:401E0000C7F1FF0FC8F1FF0FC9F1FF0FCAF1FF0FCBF1FF0FCCF1FF0FCDF1FF0F042700002CFF0B4028FF0B401CFF0B4020FF0B40034B1868C0231B02184000D00120704772
:401E400000010B4010B500F0D9F8044A1368C02109020B43136000F0D5F810BD00010B4010B500F0CBF808490A68084B1A408024E40122430A600A68134080221202134333
:401E80000B6000F0BFF810BD00010B40FF3FFFFF70B5050000F0B2F80400FFF7C9FF002803D0FFF7DDFF012100E0002108482840084A1568084B2B40184310601368012990
:401EC00001D1FFF7BFFF200000F09CF870BDC0460404040010020B40FBFBFBFF10B5244B1B685B0715D5234B1B685B070ED5224BD969042001401F4C22688A432260DA6958
:401F00008243DA611B69002B00D098470420FFF7BFFF174B1B685B0518D5164B1B685B0510D5154BD9698022D2001140114802688A430260D969114A0A40DA615B69002BA6
:401F400000D098478020C000FFF7A2FF084B1B685B030CD5074B1B685B0304D5064B9B69002B00D098478020C002FFF791FF10BD10020B40E0000020D8010020FFFBFFFF68
:401F8000014BD8677047C0460000002010B5040000F034F8044A13689B009B08A4071C43146000F02FF810BD0CE400E080221202014B1A607047C04600E100E080221202EB
:401FC000014B1A607047C04680E100E010B50400FFF7F4FF2000FFF7D3FF0320FFF7D6FFFFF7E4FF10BDC0460230800804D0C0460138FDD1C046C046C0467047EFF3108013
:4020000072B6704780F310887047C046044B1A68044B1B78044909685B00D1527047C04678020020002700000C00084070B5234C227823492C235A438A1850682278534328
:40204000CB181A7E013A1F4B1B78DBB29A421DD91C4C23780133DBB22370184D2B782C225343CB1899682378DBB29A00D3185A008A18154B1A60FFF7FDF92878C0B221780D
:40208000C9B2FFF70BFBFFF739FA16E000220D4B1A700E4AD1680E4B0B40D3600D4B1B78012B02D1FEF736FF07E0084BDA6880218A43DA601A8901321A8170BDC301002064
:4020C00020260000C20100207802002008020020FFFFFEFFC101002010B50122094B1A60FFF794FF084B1B68084A1343084A1360084B1A8901321A81D968074A0A40DA60BA
:4021000010BDC04614000840C40000202008E88104000840080200207FFFFEFF10B50F4B1B782C2253430E4A9C580E4B1A78D2B2D1008A1A9300E41801220B4B1A60FFF7CC
:4021400065FF0A4B1B680A4A13430A4A13602000FFF7B6FAFFF76AFF10BDC046C301002020260000C201002014000840C40000202008E88104000840F7B5FA278368C58A89
:402180000193038B867EBF005E43C37E04007B43F618019B2800198800F05CF881B2606800F058F8618A704300F054F80600208A3900704300F04EF80649684300F04AF8CC
:4021C0000123002802D040085B00FAE7019A30001380FEBD00E1F50570B50400FA21438A807E1D04ED1A63688900584300F032F80100280000F02EF8A36805001988E08AAF
:4022000000F028F880B26843104900F023F8A38A0A21584300F01EF800230D4A216810258A425B410222D31A62325343984203D9013D4008062DF9D14B236421584300F0C2
:4022400009F8E4682080E8B270BDC046A0860100A7610000002243088B4274D303098B425FD3030A8B4244D3030B8B4228D3030C8B420DD3FF22090212BA030C8B4202D3BD
:402280001212090265D0030B8B4219D300E0090AC30B8B4201D3CB03C01A5241830B8B4201D38B03C01A5241430B8B4201D34B03C01A5241030B8B4201D30B03C01A524158
:4022C000C30A8B4201D3CB02C01A5241830A8B4201D38B02C01A5241430A8B4201D34B02C01A5241030A8B4201D30B02C01A5241CDD2C3098B4201D3CB01C01A524183096D
:402300008B4201D38B01C01A524143098B4201D34B01C01A524103098B4201D30B01C01A5241C3088B4201D3CB00C01A524183088B4201D38B00C01A524143088B4201D383
:402340004B00C01A5241411A00D20146524110467047FFE701B5002000F0F0F802BDC0460029F7D076E7704703460B437FD4002243088B4274D303098B425FD3030A8B42E4
:4023800044D3030B8B4228D3030C8B420DD3FF22090212BA030C8B4202D31212090265D0030B8B4219D300E0090AC30B8B4201D3CB03C01A5241830B8B4201D38B03C01A6C
:4023C0005241430B8B4201D34B03C01A5241030B8B4201D30B03C01A5241C30A8B4201D3CB02C01A5241830A8B4201D38B02C01A5241430A8B4201D34B02C01A5241030AF1
:402400008B4201D30B02C01A5241CDD2C3098B4201D3CB01C01A524183098B4201D38B01C01A524143098B4201D34B01C01A524103098B4201D30B01C01A5241C3088B42B2
:4024400001D3CB00C01A524183088B4201D38B00C01A524143088B4201D34B00C01A5241411A00D201465241104670475DE0CA0F00D04942031000D34042534000229C4604
:4024800003098B422DD3030A8B4212D3FC22890112BA030A8B420CD3890192118B4208D3890192118B4204D389013AD0921100E08909C3098B4201D3CB01C01A52418309D6
:4024C0008B4201D38B01C01A524143098B4201D34B01C01A524103098B4201D30B01C01A5241C3088B4201D3CB00C01A524183088B4201D38B00C01A5241D9D243088B42EB
:4025000001D34B00C01A5241411A00D20146634652415B10104601D34042002B00D54942704763465B1000D3404201B5002000F005F802BD0029F8D016E770477047C046B9
:40254000014B18687047C046440100200E4B70B500251E000D4CE41AA410A54204D0AB00F35898470135F8E700F0E4F8084B00251E00084CE41AA410A54204D0AB00F358E3
:4025800098470135F8E770BD40270000402700004027000048270000002310B59A4203D0CC5CC4540133F9E710BD03008218934202D019700133FAE7704700000000000005
:4025C00000300F40000400400F40000438803E4058045F011801B401E2805304D4208B0497086C407008DC03190861028908A102B448B502C608D802E201EC0804300F40BA
:4026000001310F4002330F4002400F4002410F4003420F400A430F40202020202000000064260000260200203C0200207C010020B8010020F1280000050002056300000074
:40264000C018000070010020800000000C0032000A140A030A20000004000000A0000000FFFF0000040001400801044000010440040104400F00000001000000000000000C
:4026800004000140080104400001044004010440F0000000020000000401030004000140080104400001044004010440000F0000040000000802060004000140080104402B
:4026C0000001044004010440000000F0800000001C07150008000140080204400002044004020440000F0000040000000802060000000000804F120000040000009F2400B2
:4027000000000000030405060708090A0B0C0E0F101112131415161718191B1C1D1E1F2021222325262728292A2B2E2F3031323334354300F8B5C046F8BC08BC9E467047A0
:402740003102000031040000F8B5C046F8BC08BC9E4670470902000068270000C00000208800000038010000000000000008C0010000FF0F010000000000E02EC05D0000ED
:402780001800000000366E010404040000000000000000000000000000000000000000000000000000000000000000003227000000000000000000000000000000000000F7
:4027C0000000000000000000000000000000000000000000000000000000000000000000000000000000000000000000E400002000000000000000000000000000000000D5
:402800000000000000000000000000000000000000000000000000000000000000000000000000000000000000000000000000000000000000000000000000000000000098
:402840000000000000000000000000000000000000000000000000000000000000000000000000000000000000000000000000000000000000000000000000000000000058
:402880000000000000000000000000000000000000000000000000000000000000000000000000000000000000000000000000000000000000000000000000000000000018
:4028C00000000000000000000000000000000000000000000000000000000000000000000000000000000000000000000000000000000000000000000000000000000000D8
:0200000490303A
:02000000174E99
:0200000490402A
:200000000000000000000000000000000000000000000000000000000000000000000000E0
:0200000490501A
:0C000000000204A61193110104B328E1D2
:0200000490600A
:0100000001FE
:00000001FF